140520009983    B9/HG25-31 JOHANES SUHARNO    00000004263000020140814BP
70120014917     MGC-20 EMILINIA MULYANI       00000001929960020140814BP
050320002160    B4/E8-14-C WAHYU PRINGGONDANI 00000000460000020140814BP
570620011296    F4-23 EDDY SUTJIPTO           00000001640010020140814BP
050320000274    B4/A9-27 IR. MANSYUR WAHAB    00000001882000020140814BP
100420009761    B9/JE7-09 SRI WIDARI          00000014033500020140814BP
080320003980    B7/FG1-07 BAMBANG SUASONO     00000007145250020140814BP
161100014371    EG/H-07 HENRY GANDA P.ST & BIN00000004745500020140814BP
220900012684    KR/A7-09 NINA MUTHMAINNAH     00000010861750020140814BP
050320001355    B4/D1-04 Ir. JASMAN RIVAI     00000003674000020140814BP
120320009152    PR/PB17-32 IR. HIMAWAN BASUKI 00000003672500020140814BP
120630010758    PR/G-19 TETTY TOBING          00000003361250020140814BP
030320001089    B3/BT-18 SOERISONO            00000005702000020140814BP
150320004717    GR21-36 HADI LESMONO          00000003635510020140814BP
160900013616    ET/D-09 RETNO MUTIARA S, ST   00000003617000020140814BP
65080013618     JD-09 SYARIFAH KHATIJAH       00000003799020020140814BP
050320000648    B4/B1-04 IR. JAYA SATIKNO     00000008918000020140814BP
030320000418    B3/AG-45 THORKILD             00000003500000020140814BP
100320008464    B9/KD1-01 DEDDY SETIADI       00000003187250020140814BP
020320007935    B2/K2-17 ADRIAN ISAAK HARTONO 00000001580000020140814BP
040320001697    B3A/DD15-02 NY.SRI SUSILASTUTI00000039430220020140814BP
050320001208    B4/C5-10 NY. WAHYU INDARTO    00000001148000020140814BP
030320000739    B3/BA-27 NY. LINDA SIAGIAN    00000003797000020140814BP
160820012468    EH/AF-07 GINA HALOMOAN        00000002530000020140814BP
100320006123    B9/HD4-20 EVELINA GANDAULIS. R00000002762500020140814BP
020320009556    B2/T4-01 NY.CONNIE SUMAMPAW   00000002386000020140814BP
020320009565    B2/T5-01 ABRAHAM LEONARDUS LOL00000003436000020140814BP
040320001974    B3A/DF7-20 ANDRI TUTUARIMA    00000002918250020140814BP
120620010552    PR/F-20 LISTYAWATI WIDIANINGSI00000002635000020140814BP
141000013824    B5/EA1-21-23 HANI MAYANA, ST  00000010193000020140814BP
150320004657    GR20-59 PEMILIK RUMAH         00000004182490020140814BP
150320004790    GR22-12 ANDY SUSILO           00000001640020020140814BP
050320002033    B4/E1-13 NY. YAMMA LUBIS      00000003760000020140814BP
030320000847    B3/BF-11 ANWAR ZED            00000003165750020140814BP
030320000749    B3/BB-11 CRIYA PARALOMAS      00000006257750020140814BP
020320006711    B2/I5-11 KITTY MOELYONO       00000000812000020140814BP
15080013427     GR12-99 ENNY SETYORINI        00000002369980020140814BP
140510010436    B9/A4-22A DEDDI NURMAL        00000001955000020140814BP
120420009749    PR/PB38-05 Sri Handayani      00000002706250020140814BP
050320000262    B4/A9-16 DHENI RAMDHANI, SE   00000000588000020140814BP
020320009658    B2/YPM YAYASAN PENDIDIKAN MUSI00000000500000020140814BP
150320005316    GR8-41 VICI RIANI             00000002321480020140814BP
161100014641    ET/J-05 A.G. HARI S. & T. CIAN00000002624000020140814BP
100320006754    B9/JA1-17 HERY HARYADI        00000002906750020140814BP
020320008087    B2/K9-24 NY. RESMIA SH.       00000002092000020140814BP
150320005062    GR30-21 JOHN H. GUMANSALANGI  00000002000010020140814BP
15070013192     RB1-02 YOKE CHRISTINE         00000003988010020140814BP
100320006544    B9/HG7-06 RAY RUMAWAS         00000003263750020140814BP
161200014972    EV/A1-30 RISYA MARHAMILA      00000004063500020140814BP
100320007126    B9/JC8-1A IR. SOEBIJONO       00000004872000020140814BP
100320005703    B9/HB14-03 YULIA ATMADJA      00000010134500020140814BP
120320009200    PR/PB20-14 BETTY TANAMAS      00000003437000020140814BP
140810012391    B9/F15-05 SLAMET YUGO DARSONO 00000002240000020140814BP
050320003599    B4/F2-02 ZAINAL ARIFIN        00000000500000020140814BP
100320008439    B9/KC6-05 BUDI UTOMO          00000004243750020140814BP
020320008041    B2/K7-05 R. WIDAGDO           00000001036000020140814BP
100320007561    B9/JF6-17 SRI SUGIATI TEGUH   00000003769750020140814BP
100320005701    B9/HB14-24 ANANDI WIRARIO     00000005139750020140814BP
150320004942    GR27-64 ENDANG PUJI RAHAYU    00000001520010020140814BP
070320003959    B6/FF8-09 ADIK MARDIONO       00000002811750020140814BP
100320007177    B9/JE11-12 Dr. BADRIUL HEGAR S00000002608750020140814BP
130730011469    B9/HH3-17 BADRIUL HEGAR SYARIF00000008800750020140814BP
100320006412    B9/HG13-41 INDRASTOMO N.      00000011645750020140814BP
160820012253    EH/AF-36 AGUSTIA KRISANTI     00000005887000020140814BP